:020000040800F2
:1000000000000220791A00084D1A00084F1A000853
:10001000511A0008531A0008551A00080000000081
:10002000000000000000000000000000571A000857
:10003000591A0008000000005B1A00085D1A000849
:10004000C91A0008C91A0008C91A0008C91A000804
:10005000C91A0008C91A0008C91A0008C91A0008F4
:10006000C91A0008C91A0008C91A0008C91A0008E4
:10007000C91A0008C91A0008C91A0008C91A0008D4
:10008000C91A0008C91A0008C91A0008C91A0008C4
:10009000C91A0008C91A0008C91A0008C91A0008B4
:1000A000C91A0008C91A0008C91A0008C91A0008A4
:1000B000C91A0008C91A0008C91A0008C91A000894
:1000C000C91A0008C91A0008C91A0008C91A000884
:1000D000C91A0008C91A0008C91A0008C91A000874
:1000E000C91A0008C91A0008C91A0008C91A000864
:1000F000C91A0008C91A0008C91A0008C91A000854
:10010000C91A0008C91A0008C91A0008C91A000843
:10011000C91A0008C91A0008C91A0008C91A000833
:10012000C91A0008C91A0008C91A0008C91A000823
:10013000C91A00080000000000000000C91A0008E9
:10014000C91A0008C91A0008C91A0008C91A000803
:10015000C91A0008C91A0008C91A0008C91A0008F3
:10016000C91A0008C91A0008C91A0008C91A0008E3
:10017000C91A0008C91A0008C91A000800000000BE
:1001800000000000C91A0008000000000000000084
:10019000C91A00080000000000000000C91A000889
:1001A000000000000000000000000000C91A000864
:1001B000C91A0008C91A0008C91A0008C91A000893
:0401C000C91A000850
:1001C40053B94AB9002908BF00281CBF4FF0FF31BA
:1001D4004FF0FF3000F00CB8ADF1080C6DE904CE1F
:1001E40001F09EFCDDF804E0DDE9022304B0704771
:1001F400704700BF10B5054C237833B9044B13B1D5
:100204000448AFF300800123237010BD0C000020CC
:1002140000000000E01D000808B5034B1BB10349B2
:100224000348AFF3008008BD000000001000002068
:10023400E01D000830B58BB00024059406940794A3
:10024400089409940194224B1A6B42F004021A6335
:100254001A6B02F004020192019A02941A6B42F0A2
:1002640080021A631A6B02F080020292029A0394CB
:100274001A6B42F001021A631A6B02F00102039234
:10028400039A04941A6B42F002021A631B6B03F084
:1002940002030493049B0F4D22462021284600F0BC
:1002A400E0FA4FF4005305934FF4041306930794B4
:1002B40005A9094800F0DEF92023059301230693DC
:1002C4000794089405A9284600F0D4F90BB030BD72
:1002D40000380240000002400008024059B9037887
:1002E40013F0010F01D100230370037813F0010F01
:1002F40001D001330370704772B6FEE708B50A48AF
:100304000A4B03604FF4E133436000238360C3600E
:1003140003610C2242618361C36101F065FB00B992
:1003240008BDFFF7E9FF00BF28000020004400409B
:1003340000B58FB000230A930B930C930D9308938D
:1003440009930193029303930493059306930793EC
:1003540024484FF080420260436083604FF6FF728E
:10036400C26003618023836101F00EF868BB4FF41F
:1003740080530A930AA91B4801F011F938BB1948A4
:1003840001F02EF828BB00230893099308A9154807
:1003940001F05CFAF8B9602301934CF250330293F4
:1003A40000220392059201A90E4801F07DF8A0B93C
:1003B40004220DEB02010B4801F076F878B90948E4
:1003C40000F08CFA0FB05DF804FBFFF795FFFFF720
:1003D40093FFFFF791FFFFF78FFFFFF78DFFFFF705
:1003E4008BFF00BF7000002000B595B034220021BF
:1003F40007A801F068FB0023029303930493059379
:10040400069300931F4A116C41F080511164126CE1
:1004140002F080520092009A01931B490A6822F468
:10042400404242F480420A600A6802F44042019267
:10043400019A0222079201210A9110210B910D9237
:100444000E930F914FF4A8731093042311931292F7
:10045400139207A800F042FC80B90F2302930221F3
:100464000391002304934FF480520592069302A84B
:1004740000F096FA20B915B05DF804FBFFF73CFFD5
:10048400FFF73AFF003802400070004010B582B018
:1004940000F05AF8FFF7A8FFFFF7CCFEFFF72EFF96
:1004A400FFF746FF134800F09BFF00238DF8073049
:1004B40008E0104C0421204601F082F90021204676
:1004C40001F0FCF84FF400510B4800F0C3F9014669
:1004D4000DF10700FFF702FF9DF80730002BE8D06D
:1004E400044C0021204601F06BF90421204601F060
:1004F400E5F8E7E7700000200008024010B5044664
:100504000E4B1A784FF47A73B3FBF2F30C4A10686B
:10051400B0FBF3F000F09AF868B90F2C01D9012070
:100524000AE0002221464FF0FF3000F07FF8054B2F
:100534001C60002000E0012010BD00BF000000206E
:10054400080000200400002008B50B4B1A6842F490
:1005540000721A601A6842F480621A601A6842F4DF
:1005640080721A60032000F04FF80020FFF7C6FFE6
:1005740000F07EF9002008BD003C0240034A1168E7
:10058400034B1B780B441360704700BFB800002076
:1005940000000020014B1868704700BFB80000201D
:1005A400002808DB0901C9B200F1604000F5614090
:1005B40080F80013704700F00F000901C9B2014B25
:1005C4001954704714ED00E000B500F00700C0F1C5
:1005D400070CBCF1040F28BF4FF0040C031D062BBD
:1005E4000FD9C31E4FF0FF3E0EFA0CF021EA0001B2
:1005F40099400EFA03FE22EA0E0241EA02005DF877
:1006040004FB0023EEE70000074AD36823F4E06309
:100614001B041B0C000200F4E060034343F0BF63BF
:1006240043F40033D360704700ED00E010B5044696
:10063400054BD868C0F30220FFF7C6FF01462046E9
:10064400FFF7AEFF10BD00BF00ED00E00138B0F1D0
:10065400807F0BD24FF0E0235861054AF02182F8E5
:1006640023100020986107221A6170470120704707
:1006740000ED00E000230F2B00F2E38070B582B0A0
:1006840065E085684FEA430E032404FA0EF425EA74
:100694000405CC6804FA0EF42C438460446824EA0C
:1006A40002044A68C2F300129A40224342605CE0AA
:1006B400DC08083450F8242003F00705AD004FF09F
:1006C4000F0E0EFA05FE22EA0E0E0A69AA4042EA4D
:1006D4000E0240F824205CE0062200E0002202FA28
:1006E4000EF22A430234574D45F82420564A9468A2
:1006F4006FEA0C0224EA0C054E6816F4801F01D040
:100704004CEA0405504CA560E46802EA04054E680E
:1007140016F4001F01D04CEA04054B4CE5606468F4
:1007240002EA04054E6816F4003F01D04CEA0405C1
:10073400454C6560246822404D6815F4803F01D023
:100744004CEA0402404C226001330F2B77D801227B
:100754009A400C6804EA020C32EA0404F4D14C68AE
:1007640004F00304013C012C8BD94A6802F0030213
:10077400032A09D0C4685D000322AA4024EA0204C3
:100784008A68AA402243C2604A6802F00302022A2D
:100794008ED004684FEA430E032202FA0EF224EAD2
:1007A40002044A6802F0030202FA0EF222430260D3
:1007B4004A6812F4403FC7D000220192234A546C85
:1007C40044F480445464526C02F480420192019ACD
:1007D4009C08A51C1B4A52F8255003F0030E4FEA4F
:1007E4008E0E0F2202FA0EF225EA0205184A9042F2
:1007F4003FF474AF02F58062904216D002F5806235
:10080400904214D002F58062904212D002F58062C8
:10081400904210D002F5806290420ED002F58062C0
:1008240090423FF459AF072259E7012257E70222C9
:1008340055E7032253E7042251E705224FE702B0AC
:1008440070BD704700380140003C01400038024050
:10085400000002400369194201D0012070470020C2
:1008640070470AB1816170470904816170470000D3
:1008740000B583B0002100910C4B5A6C42F48042C5
:100884005A645A6C02F480420092009A01911A6CE4
:1008940042F080521A641B6C03F080530193019B55
:1008A4000720FFF7B1FE03B05DF804FB00380240F7
:1008B4000368B3F1804F00D0704782B000230193E6
:1008C400054B1A6C42F001021A641B6C03F001031D
:1008D4000193019B02B070470038024000B587B015
:1008E4000023019302930393049305930368B3F1E4
:1008F400804F02D007B05DF804FB002300930A4B3D
:100904001A6B42F001021A631B6B03F0010300939C
:10091400009B03230193022302930123059301A95E
:100924000248FFF7A7FEE5E7003802400000024056
:1009340000B589B0002303930493059306930793AA
:100944000268154B9A4202D009B05DF804FB0021FD
:10095400019103F5FA331A6C42F400321A641A6CEA
:1009640002F400320192019A02911A6B42F00102E0
:100974001A631B6B03F001030293029B0C23039382
:1009840002230493032306930723079303A903482D
:10099400FFF770FED8E700BF0044004000000240AB
:1009A400002800F09B8070B50D4604464F4B1B6831
:1009B40003F00F038B4208D2CBB24C4A1370136876
:1009C40003F00F038B4240F08B80236813F0020F77
:1009D40017D013F0040F04D0454A936843F4E0534E
:1009E4009360236813F0080F04D0414A936843F4DA
:1009F400604393603E4A936823F0F003A1680B437D
:100A04009360236813F0010F32D06368012B21D067
:100A14009A1E012A25D9364A126812F0020F61D0B3
:100A240033498A6822F0030213438B60FFF7B2FD57
:100A340006462F4B9B6803F00C036268B3EB820FEE
:100A440016D0FFF7A7FD801B41F288339842F0D9F6
:100A5400032042E0264A126812F4003FE0D101204C
:100A64003BE0234A126812F0007FD9D1012034E020
:100A74001E4B1B6803F00F03AB4207D9EAB21B4BB2
:100A84001A701B6803F00F03AB422DD1236813F0D7
:100A9400040F06D0164A936823F4E053E1680B432D
:100AA4009360236813F0080F07D0114A936823F466
:100AB4006043216943EAC103936000F047F80C4B9B
:100AC4009B68C3F303130B4AD35CD8400A4B1860EA
:100AD4000A4B1868FFF712FD002070BD0120704713
:100AE4000120FAE70120F8E70120F6E7003C024084
:100AF40000380240001E0008080000200400002006
:100B0400014B1868704700BF0800002008B5FFF7C4
:100B1400F7FF044B9B68C3F38223034AD35CD8409A
:100B240008BD00BF00380240F81D000808B5FFF7F3
:100B3400E7FF044B9B68C3F34233034AD35CD840BA
:100B440008BD00BF00380240F81D000808B5604B1E
:100B54009B6803F00C03082B06D00C2B5ED0042BEF
:100B640040F0B4805B4833E0594B5A6802F03F02CE
:100B74005B6813F4800F2CD0554B5868C0F3881071
:100B84004FEA401CBCEB000C6EEB0E0E4FEA8E13CA
:100B940043EA9C634FEA8C11B1EB0C0163EB0E0347
:100BA400DB0043EA5173C90011EB000C43F100036D
:100BB400590200234FEA4C2041EADC51FFF700FBC5
:100BC400434B5B68C3F3014301335B00B0FBF3F0B9
:100BD40008BD3F4B5868C0F388104FEA401CBCEB7B
:100BE400000C6EEB0E0E4FEA8E1343EA9C634FEA41
:100BF4008C11B1EB0C0163EB0E03DB0043EA517380
:100C0400C90011EB000C43F10003990200234FEAE1
:100C14008C2041EA9C51FFF7D3FAD1E72C4B5A6858
:100C240002F03F025B6813F4800F2AD0284B586807
:100C3400C0F388104FEA401CBCEB000C6EEB0E0EA8
:100C44004FEA8E1343EA9C634FEA8C11B1EB0C011B
:100C540063EB0E03DB0043EA5173C90011EB000C94
:100C640043F10003590200234FEA4C2041EADC51CE
:100C7400FFF7A6FA164B5B68C3F30273B0FBF3F0FD
:100C8400A6E7134B5868C0F388104FEA401CBCEB2E
:100C9400000C6EEB0E0E4FEA8E1343EA9C634FEA90
:100CA4008C11B1EB0C0163EB0E03DB0043EA5173CF
:100CB400C90011EB000C43F10003990200234FEA31
:100CC4008C2041EA9C51FFF77BFAD3E702487FE787
:100CD4000038024000127A000024F400002800F0DA
:100CE400018270B582B00446036813F0010F41D04D
:100CF400994B9B6803F00C03042B32D0964B9B68F2
:100D040003F00C03082B27D0934B9B6803F00C03D0
:100D14000C2B59D06368B3F5803F5BD0B3F5A02F9B
:100D24005ED08D4B1A6822F480321A601A6822F45D
:100D340080221A606368002B5CD0FFF72BFC054609
:100D4400854B1B6813F4003F14D1FFF723FC401BB1
:100D54006428F5D90320CCE17F4B5B6813F4800F42
:100D6400D2D07D4B1B6813F4003F03D06368002B83
:100D740000F0BA81236813F0020F60D0764B9B68B1
:100D840013F00C0F4AD0744B9B6803F00C03082B30
:100D94003FD0714B9B6803F00C030C2B69D0E368C4
:100DA400002B75D06D4B01221A60FFF7F3FB05464B
:100DB400694B1B6813F0020F61D1FFF7EBFB401B7B
:100DC4000228F5D9032094E1634B5B6813F4800F88
:100DD400A0D0C6E7604A136843F480331360A9E7E0
:100DE4005D4B1A6842F480221A601A6842F4803219
:100DF4001A609FE7FFF7CEFB0546574B1B6813F4B9
:100E0400003FB7D0FFF7C6FB401B6428F5D9032089
:100E14006FE1514B5B6813F4800FBAD14E4B1B68E2
:100E240013F0020F03D0E368012B40F05F814A4ABC
:100E3400136823F0F803216943EAC10313602368AC
:100E440013F0080F49D06369002B33D0434B0122C0
:100E5400C3F8802EFFF79EFB05463F4B5B6F13F0F4
:100E6400020F3AD1FFF796FB401B0228F5D9032065
:100E74003FE1394B5B6813F4800F90D1CEE7364ADB
:100E8400136823F0F803216943EAC1031360D6E72A
:100E9400324B00221A60FFF77DFB05462E4B1B6880
:100EA40013F0020FCBD0FFF775FB401B0228F5D9D6
:100EB40003201EE1294B0022C3F8802EFFF76AFBB2
:100EC4000546254B5B6F13F0020F06D0FFF762FB5C
:100ED400401B0228F5D903200BE1236813F0040F0B
:100EE40076D01D4B1B6C13F0805F33D1002301932C
:100EF400194B1A6C42F080521A641B6C03F0805335
:100F04000193019B0125164B1B6813F4807F29D0A4
:100F1400A368012B3AD0052B3ED00F4B1A6F22F059
:100F240001021A671A6F22F004021A67A368002BE1
:100F34003CD0FFF72FFB0646074B1B6F13F0020F45
:100F440045D1FFF727FB801B41F288339842F3D940
:100F54000320CEE00025D6E70038024000004742D7
:100F6400007000406B4A136843F480731360FFF70A
:100F740011FB0646674B1B6813F4807FC8D1FFF74B
:100F840009FB801B0228F5D90320B2E0624A136FE3
:100F940043F001031367C9E75F4B1A6F42F0040281
:100FA4001A671A6F42F001021A67BFE7FFF7F2FAF5
:100FB4000646594B1B6F13F0020F08D0FFF7EAFAED
:100FC400801B41F288339842F3D9032091E0EDB9B4
:100FD400A369002B00F08C804F4A926802F00C0247
:100FE400082A54D0022B17D04C4B00221A66FFF764
:100FF400D1FA0446484B1B6813F0007F45D0FFF735
:10100400C9FA001B0228F5D9032072E0424A136C86
:1010140023F080531364DBE7404B00221A66FFF78A
:10102400B9FA05463C4B1B6813F0007F06D0FFF766
:10103400B1FA401B0228F5D903205AE0E369226A79
:101044001343626A43EA8213A26A5208013A43EAEA
:101054000243E26A43EA0263226B43EA02732E4AC2
:1010640053602E4B01221A66FFF794FA04462A4B6A
:101074001B6813F0007F06D1FFF78CFA001B0228CF
:10108400F5D9032035E0002033E0002031E0012BC6
:1010940031D0214B5B6803F48001E26991422CD189
:1010A40003F03F02216A8A4229D1616A47F6C0727D
:1010B4001A40B2EB811F24D103F44031A26A5208D2
:1010C400013AB1EB024F1ED103F07062E16AB2EB58
:1010D400016F1AD103F0E043226BB3EB027F16D108
:1010E400002006E001207047012002E0012000E01A
:1010F400002002B070BD0120FBE70120F9E70120C8
:10110400F7E70120F5E70120F3E70120F1E70120EB
:10111400EFE700BF00700040003802400000474283
:1011240030B4036A026A22F00102026242688469EE
:1011340024F0730C0C6844EA0C0423F0020C8B6852
:1011440043EA0C03114DA84203D005F58065A8427B
:1011540005D123F00803CD682B4323F004030B4D82
:10116400A84203D005F58065A84207D122F4407255
:101174004D6945EA020C8A6942EA0C0242608461C4
:101184004A684263036230BC704700BF00000140FC
:1011940030B4036A026A22F4807202624268C4694B
:1011A40024F0730C0C6844EA0C0523F400738C6877
:1011B40043EA0423114CA04203D004F58064A04206
:1011C40006D123F40063CC6843EA042323F4806348
:1011D4000A4CA04203D004F58064A04207D122F453
:1011E40040524C6942EA04128C6942EA0412426099
:1011F400C5614A68C263036230BC704700000140A5
:1012040030B4036A026A22F4805202624468C269FA
:1012140022F4E6420D6842EA052223F400538D6865
:1012240043EA0533094DA84203D005F58065A84279
:1012340004D124F480444D6944EA85144460C261B5
:101244004A680264036230BC704700BF000001407A
:1012540010B4036A046A24F001040462846924F06B
:10126400F00C4CEA021223F00A030B43826103627E
:101274005DF8044B704710B4036A046A24F0100448
:101284000462846924F4704C4CEA023223F0A00313
:1012940043EA0113826103625DF8044B704783687B
:1012A40023F070030B4343F00703836070477047D8
:1012B4000368344A904212D0B0F1804F0FD0A2F5A7
:1012C4007C4290420BD002F58062904207D002F536
:1012D4008062904203D002F57842904203D123F019
:1012E40070034A681343274A90422AD0B0F1804FD2
:1012F40027D0A2F57C42904223D002F5806290422E
:101304001FD002F5806290421BD002F578429042D1
:1013140017D002F57052904213D002F580629042C9
:101324000FD002F5806290420BD0A2F59832904221
:1013340007D002F58062904203D002F580629042A9
:1013440003D123F44073CA68134323F080034A692A
:10135400134303608B68C3620B688362094B984232
:1013640003D003F58063984201D10B690363012321
:101374004361036913F0010F03D0036923F00103F0
:10138400036170470000014040B310B5044690F873
:101394003D30F3B1022384F83D30214651F8040B6B
:1013A400FFF786FF012384F8463084F83E3084F842
:1013B4003F3084F8403084F8413084F8423084F877
:1013C400433084F8443084F8453084F83D300020BC
:1013D40010BD80F83C30FFF76BFADBE70120704763
:1013E40040B310B5044690F83D30F3B1022384F8BD
:1013F4003D30214651F8040BFFF75AFF012384F8CE
:10140400463084F83E3084F83F3084F8403084F825
:10141400413084F8423084F8433084F8443084F80E
:10142400453084F83D30002010BD80F83C30FFF793
:101434003EFFDBE70120704730B4036A026A22F002
:10144400100202624468826922F4E6420D6842EAAC
:10145400052223F020038D6843EA0513114DA842A9
:1014640003D005F58065A84206D123F08003CD683A
:1014740043EA051323F040030A4DA84203D005F5BF
:101484008065A84207D124F440644D6944EA850488
:101494008D6944EA8504446082614A688263036218
:1014A40030BC70470000014038B590F83C30012B47
:1014B40066D004460D46012380F83C300C2A5AD8E5
:1014C400DFE802F0075959591B59595930595959EC
:1014D40044000068FFF724FE2268936943F0080380
:1014E40093612268936923F00403936122689369EA
:1014F40029690B43936100203EE00068FFF79CFFDD
:101504002268936943F4006393612268936923F426
:101514008063936122689369296943EA0123936193
:10152400002029E00068FFF733FE2268D36943F006
:101534000803D3612268D36923F00403D3612268CA
:10154400D36929690B43D361002015E00068FFF7D4
:1015540057FE2268D36943F40063D3612268D369D8
:1015640023F48063D3612268D369296943EA0123A0
:10157400D361002000E00120002384F83C3038BD12
:101584000220FCE710B4846824F47F4C42EA03226E
:101594000A4342EA0C0282605DF8044B704790F8FB
:1015A4003C30012B78D010B50446012380F83C3040
:1015B400022380F83D300268936823F47F4323F0CC
:1015C400770393600B68602B4CD023D8402B54D006
:1015D40011D8202B03D00AD80BB1102B05D11946F2
:1015E4002068FFF75CFE002028E0012026E0302B75
:1015F400F5D0012022E0502B0AD1CA68496800685E
:10160400FFF726FE50212068FFF749FE002015E071
:10161400012013E0B3F5805F3AD0B3F5005F14D036
:10162400702B37D1CB684A6889680068FFF7AAFF36
:101634002268936843F0770393600020012384F8C1
:101644003D30002384F83C3010BDCB684A6889687B
:101654000068FFF797FF2268936843F48043936020
:101664000020EBE7CA6849680068FFF704FE6021C0
:101674002068FFF714FE0020E0E7CA6849680068A4
:10168400FFF7E6FD40212068FFF709FE0020D5E7BB
:101694000020D3E70120D1E70220704701F01F01A9
:1016A4004FF0010C0CFA01FC036A23EA0C030362F9
:1016B400036A8A40134303627047000010B504466E
:1016C4000846002942D194F83E30DBB2013B18BFF2
:1016D4000123002B6ED1002851D1022384F83E301F
:1016E400012201462068FFF7D9FF2368334A934259
:1016F40003D002F58062934203D15A6C42F4004253
:101704005A6423682D4A934249D0B3F1804F46D09E
:10171400A2F57C42934242D002F5806293423ED0CD
:1017240002F5806293423AD002F57842934236D071
:1017340002F57052934232D0A2F5943293422ED0E5
:101744001A6842F001021A60002032E0042908D02D
:1017540008290DD094F84130DBB2013B18BF0123B6
:10176400B7E794F83F30DBB2013B18BF0123B0E781
:1017740094F84030DBB2013B18BF0123A9E70428E9
:1017840005D0082807D0022384F84130A8E70223B3
:1017940084F83F30A4E7022384F84030A0E79A6835
:1017A40002F00702062A07D01A6842F001021A6002
:1017B400002010BD0120FCE70020FAE700000140F2
:1017C40038B504460D4600220068FFF767FF23681A
:1017D4001D4A934218D002F58062934214D02368C4
:1017E400196A41F21112114208D1196A40F24442B5
:1017F400114203D11A6822F001021A609DB9012333
:1018040084F83E30002038BD196A41F211121142A9
:10181400E5D1196A40F244421142E0D15A6C22F4F3
:1018240000425A64DBE7042D05D0082D07D00123BC
:1018340084F84130E6E7012384F83F30E2E70123EE
:1018440084F84030DEE700BF0000014090F83C20FF
:10185400012A3DD010B40346012280F83C20022224
:1018640080F83D2002685068946820F0700C086885
:1018740040EA0C0050601A68164882421AD0B2F14D
:10188400804F17D0A0F57C40824213D000F58060D1
:1018940082420FD000F5806082420BD000F5784080
:1018A400824207D000F57050824203D0A0F59430F4
:1018B400824204D124F080044968214391600122CA
:1018C40083F83D20002083F83C005DF8044B70470A
:1018D400022070470000014010B5044602681369F5
:1018E40023F44053C1680B431361836802691A43AC
:1018F40043691A43C3691A430168CB6823F4164346
:1019040023F00C031343CB600268536923F4407340
:1019140081690B4353610368314A934206D002F54F
:101924008062934202D0FFF7F1F801E0FFF7FEF87E
:10193400E369B3F5004F29D00021031849411B186E
:1019440041F10001C90041EA5371DB0018186368D2
:101954004FEA83024FEA937341F10001FEF730FC32
:10196400204AA2FB00314909642303FB11031B0134
:101974003233A2FB03235B0903F0F00202EB0112F2
:1019840003F00F03216813448B6010BD0023021879
:1019940043EB0301121841F10001C90041EA5271FD
:1019A400D200101841F10001626892185B41FEF701
:1019B40007FC0C4AA2FB00314909642303FB110311
:1019C400DB003233A2FB03235B095A0002F4F872F2
:1019D40002EB011203F00703216813448B60D4E780
:1019E400001001401F85EB5160B310B5044690F818
:1019F400413013B3242384F841302268D36823F49C
:101A04000053D3602046FFF767FF2268136923F46D
:101A1400904313612268536923F02A0353612268B7
:101A2400D36843F40053D36000206064202384F817
:101A3400413084F84230606310BD80F84030FEF7D6
:101A440077FFD7E701207047FEE7FEE7FEE7FEE7F2
:101A5400FEE770477047704708B5FEF78FFD08BD75
:101A6400034AD2F8883043F47003C2F888307047D0
:101A740000ED00E0DFF834D0FFF7F2FF0C480D4929
:101A84000D4A002302E0D458C4500433C4188C42D5
:101A9400F9D30A4A0A4C002301E013600432A2423B
:101AA400FBD300F019F8FEF7F1FC704700000220A8
:101AB400000000200C000020201E00080C00002064
:101AC400BC000020FEE702440346934200D1704765
:101AD40003F8011BF9E7000070B50D4D0D4C641BB4
:101AE400A4100026A64209D10B4D0C4C00F076F947
:101AF400641BA4100026A64205D170BD55F8043B12
:101B040098470136EEE755F8043B98470136F2E76B
:101B1400181E0008181E0008181E00081C1E0008C5
:101B24002DE9F047089D0E4604460F46002B4AD186
:101B340094468C45B2FA82F260D942B1C2F12003D4
:101B4400974020FA03F30CFA02FC1F4394404FEA37
:101B54001C4E1FFA8CF6B7FBFEF1230C0EFB11771B
:101B640043EA074301FB06F098420AD91CEB03033E
:101B740001F1FF3780F01581984240F21281023959
:101B840063441B1AA4B2B3FBFEF00EFB103344EA09
:101B9400034400FB06F6A6420AD91CEB040400F138
:101BA400FF3380F00081A64240F2FD806444023895
:101BB40040EA0140A41B00211DB1D4400023C5E923
:101BC4000043BDE8F0878B4205D90DB1C5E900019A
:101BD40000210846F5E7B3FA83F1002946D1B34260
:101BE40002D3824200F2F580841A66EB03020120DC
:101BF4001746002DE5D0C5E90047E2E7002A40F08A
:101C04009380A1EB0C034FEA1C471FFA8CFE0121C1
:101C1400B3FBF7F607FB1630230C43EA00430EFB35
:101C240006F0984208D91CEB030306F1FF3802D2F0
:101C3400984200F2D08046461B1AA4B2B3FBF7F0D8
:101C440007FB103344EA03440EFB00FEA64508D903
:101C54001CEB040400F1FF3302D2A64500F2B68067
:101C64001846A4EB0E0440EA0640A5E7C1F120079C
:101C74008B4022FA07FC4CEA030C06FA01FE20FA18
:101C840007F426FA07F344EA0E0400FA01F84FEACF
:101C94001C404FEA1449B3FBF0FE1FFA8CF600FB1C
:101CA4001E3349EA03430EFB06F9994502FA01F291
:101CB4000BD91CEB03030EF1FF3A80F085809945A4
:101CC40040F28280AEF1020E6344A3EB0909A4B290
:101CD400B9FBF0F300FB139944EA094403FB06F64D
:101CE400A64208D91CEB040403F1FF3068D2A642D3
:101CF40066D9023B644443EA0E40A41BA0FB02E6FF
:101D0400B4427346B14652D34FD05DB1B8EB03022F
:101D140064EB090404FA07F722FA01F31F43CC40E9
:101D2400C5E9007400214CE7C2F1200120FA01F357
:101D34000CFA02FC26FA01F1964033434FEA1C47A1
:101D44001FFA8CFEB1FBF7F007FB1016190C41EAE1
:101D5400064100FB0EF68E4204FA02F408D91CEB8D
:101D6400010100F1FF382DD28E422BD90238614493
:101D7400891B9BB2B1FBF7F607FB161143EA01433B
:101D840006FB0EF1994208D91CEB030306F1FF3858
:101D940014D2994212D9023E63445B1A46EA0041C6
:101DA40036E73946EDE6184602E7F045ADD2BEEB1C
:101DB400020366EB0C060138B146A6E74646ECE79B
:101DC400034698E74046D3E7D6467EE764440238A4
:101DD40047E708460DE7023E63442DE7F8B500BF28
:101DE400F8BC08BC9E467047F8B500BFF8BC08BCF8
:041DF4009E46704750
:101DF80000000000010203040000000000000000D1
:081E08000102030406070809AA
:081E100014FDFF7F010000003A
:041E18001D0200089F
:041E1C00F9010008C0
:0C1E200001000000100000000024F4008D
:0400000508001A795C
:00000001FF
